{
  "contractName": "ContractInfo",
  "abi": [
    {
      "constant": true,
      "inputs": [
        {
          "name": "",
          "type": "address"
        },
        {
          "name": "",
          "type": "bytes4"
        },
        {
          "name": "",
          "type": "bytes5"
        }
      ],
      "name": "info_store",
      "outputs": [
        {
          "name": "",
          "type": "string"
        }
      ],
      "payable": false,
      "stateMutability": "view",
      "type": "function"
    },
    {
      "anonymous": false,
      "inputs": [
        {
          "indexed": true,
          "name": "contractAddr",
          "type": "address"
        },
        {
          "indexed": false,
          "name": "selector",
          "type": "bytes4"
        },
        {
          "indexed": false,
          "name": "lang",
          "type": "bytes5"
        },
        {
          "indexed": false,
          "name": "info",
          "type": "string"
        }
      ],
      "name": "InfoAttached",
      "type": "event"
    },
    {
      "constant": false,
      "inputs": [
        {
          "name": "contractAddr",
          "type": "address"
        },
        {
          "name": "selector",
          "type": "bytes4"
        },
        {
          "name": "lang",
          "type": "bytes5"
        },
        {
          "name": "info",
          "type": "string"
        }
      ],
      "name": "attachInfo",
      "outputs": [],
      "payable": false,
      "stateMutability": "nonpayable",
      "type": "function"
    },
    {
      "constant": true,
      "inputs": [
        {
          "name": "contractAddr",
          "type": "address"
        },
        {
          "name": "selector",
          "type": "bytes4"
        },
        {
          "name": "lang",
          "type": "bytes5"
        }
      ],
      "name": "getInfo",
      "outputs": [
        {
          "name": "",
          "type": "string"
        }
      ],
      "payable": false,
      "stateMutability": "view",
      "type": "function"
    }
  ],
  "bytecode": "0x608060405234801561001057600080fd5b50610bea806100206000396000f300608060405260043610610057576000357c0100000000000000000000000000000000000000000000000000000000900463ffffffff168063115d1d9c1461005c57806314b9c0fe146101695780633a3cd30414610243575b600080fd5b34801561006857600080fd5b506100ee600480360381019080803573ffffffffffffffffffffffffffffffffffffffff16906020019092919080357bffffffffffffffffffffffffffffffffffffffffffffffffffffffff1916906020019092919080357affffffffffffffffffffffffffffffffffffffffffffffffffffff19169060200190929190505050610350565b6040518080602001828103825283818151815260200191508051906020019080838360005b8381101561012e578082015181840152602081019050610113565b50505050905090810190601f16801561015b5780820380516001836020036101000a031916815260200191505b509250505060405180910390f35b34801561017557600080fd5b50610241600480360381019080803573ffffffffffffffffffffffffffffffffffffffff16906020019092919080357bffffffffffffffffffffffffffffffffffffffffffffffffffffffff1916906020019092919080357affffffffffffffffffffffffffffffffffffffffffffffffffffff19169060200190929190803590602001908201803590602001908080601f0160208091040260200160405190810160405280939291908181526020018383808284378201915050505050509192919290505050610743565b005b34801561024f57600080fd5b506102d5600480360381019080803573ffffffffffffffffffffffffffffffffffffffff16906020019092919080357bffffffffffffffffffffffffffffffffffffffffffffffffffffffff1916906020019092919080357affffffffffffffffffffffffffffffffffffffffffffffffffffff19169060200190929190505050610a4f565b6040518080602001828103825283818151815260200191508051906020019080838360005b838110156103155780820151818401526020810190506102fa565b50505050905090810190601f1680156103425780820380516001836020036101000a031916815260200191505b509250505060405180910390f35b606060008060008673ffffffffffffffffffffffffffffffffffffffff1673ffffffffffffffffffffffffffffffffffffffff1681526020019081526020016000206000857bffffffffffffffffffffffffffffffffffffffffffffffffffffffff19167bffffffffffffffffffffffffffffffffffffffffffffffffffffffff191681526020019081526020016000206000847affffffffffffffffffffffffffffffffffffffffffffffffffffff19167affffffffffffffffffffffffffffffffffffffffffffffffffffff191681526020019081526020016000208054600181600116156101000203166002900490501415156105c4576000808573ffffffffffffffffffffffffffffffffffffffff1673ffffffffffffffffffffffffffffffffffffffff1681526020019081526020016000206000847bffffffffffffffffffffffffffffffffffffffffffffffffffffffff19167bffffffffffffffffffffffffffffffffffffffffffffffffffffffff191681526020019081526020016000206000837affffffffffffffffffffffffffffffffffffffffffffffffffffff19167affffffffffffffffffffffffffffffffffffffffffffffffffffff191681526020019081526020016000208054600181600116156101000203166002900480601f0160208091040260200160405190810160405280929190818152602001828054600181600116156101000203166002900480156105b85780601f1061058d576101008083540402835291602001916105b8565b820191906000526020600020905b81548152906001019060200180831161059b57829003601f168201915b5050505050905061073c565b6000808573ffffffffffffffffffffffffffffffffffffffff1673ffffffffffffffffffffffffffffffffffffffff1681526020019081526020016000206000847bffffffffffffffffffffffffffffffffffffffffffffffffffffffff19167bffffffffffffffffffffffffffffffffffffffffffffffffffffffff1916815260200190815260200160002060007f656e0000000000000000000000000000000000000000000000000000000000007affffffffffffffffffffffffffffffffffffffffffffffffffffff191681526020019081526020016000208054600181600116156101000203166002900480601f0160208091040260200160405190810160405280929190818152602001828054600181600116156101000203166002900480156107345780601f1061070957610100808354040283529160200191610734565b820191906000526020600020905b81548152906001019060200180831161071757829003601f168201915b505050505090505b9392505050565b833373ffffffffffffffffffffffffffffffffffffffff168173ffffffffffffffffffffffffffffffffffffffff16638da5cb5b6040518163ffffffff167c0100000000000000000000000000000000000000000000000000000000028152600401602060405180830381600087803b1580156107bf57600080fd5b505af11580156107d3573d6000803e3d6000fd5b505050506040513d60208110156107e957600080fd5b810190808051906020019092919050505073ffffffffffffffffffffffffffffffffffffffff1614151561081c57600080fd5b816000808773ffffffffffffffffffffffffffffffffffffffff1673ffffffffffffffffffffffffffffffffffffffff1681526020019081526020016000206000867bffffffffffffffffffffffffffffffffffffffffffffffffffffffff19167bffffffffffffffffffffffffffffffffffffffffffffffffffffffff191681526020019081526020016000206000857affffffffffffffffffffffffffffffffffffffffffffffffffffff19167affffffffffffffffffffffffffffffffffffffffffffffffffffff19168152602001908152602001600020908051906020019061090a929190610b19565b508473ffffffffffffffffffffffffffffffffffffffff167fbe4a67e10075b6718065ee1fc629533cd4f3525ec7bfd7a2f602d76c897426de85858560405180847bffffffffffffffffffffffffffffffffffffffffffffffffffffffff19167bffffffffffffffffffffffffffffffffffffffffffffffffffffffff19168152602001837affffffffffffffffffffffffffffffffffffffffffffffffffffff19167affffffffffffffffffffffffffffffffffffffffffffffffffffff1916815260200180602001828103825283818151815260200191508051906020019080838360005b83811015610a0c5780820151818401526020810190506109f1565b50505050905090810190601f168015610a395780820380516001836020036101000a031916815260200191505b5094505050505060405180910390a25050505050565b600060205282600052604060002060205281600052604060002060205280600052604060002060009250925050508054600181600116156101000203166002900480601f016020809104026020016040519081016040528092919081815260200182805460018160011615610100020316600290048015610b115780601f10610ae657610100808354040283529160200191610b11565b820191906000526020600020905b815481529060010190602001808311610af457829003601f168201915b505050505081565b828054600181600116156101000203166002900490600052602060002090601f016020900481019282601f10610b5a57805160ff1916838001178555610b88565b82800160010185558215610b88579182015b82811115610b87578251825591602001919060010190610b6c565b5b509050610b959190610b99565b5090565b610bbb91905b80821115610bb7576000816000905550600101610b9f565b5090565b905600a165627a7a72305820041d6467b518cc83a41e05a158e0497e45bc5d72666eb6e1ce10d05fbb390cb20029",
  "source": "pragma solidity ^0.4.20;\n\n/**\n   @title Owned, a standard interface to check smart contract owner\n\n   Any contract implemente ERC*** should support this inferface, that to say has public ower() function to \n   return owner's address\n\n */\ncontract Owned {\n  /**\n   * @dev Return contract owner address. \n   * @return owner address\n   */\n  function owner() public view returns (address);\n}\n\n/**\n   @title ContractInfo Human readable contraction information registry. Implimentation of ERC***.\n\n   Allow contract owner attach human readable information to contract and it's functions. Wallets such as\n   MetaMask, Imtoken, Status, Toshi etc. could display those information to users when they about to confirm\n   Ethereum transaction.\n\n */\ncontract ContractInfo {\n\n  //inforamtion storage, contract address => function selector => language code => information\n  mapping (address => mapping( bytes4 =>mapping (bytes5 => string))) public info_store;\n\n  //event emitted after contract information got set\n  event InfoAttached(address indexed contractAddr, bytes4 selector, bytes5 lang, string info);\n\n  /**\n   * @dev Throws if called by any account other than contract owner.\n   */\n  modifier onlyOwner(address contractAddr){\n    require(Owned(contractAddr).owner() == msg.sender);\n    _;\n  }\n\n  /**\n   * @dev Allows the contract owner to attach human readable information of contract and it's functions.\n   * @param contractAddr The address of the contract which info attached to.\n   * @param selector The selector of function which info attached to, use contract name's selector to attach\n   information for the whole contract.\n   * @param lang ISO 639 language code of the information. Every contract should at least attach english info\n   which language code is \"en\".\n   * @param info Information string in UTF8 encoding.\n   */\n  function attachInfo(address contractAddr, bytes4 selector, bytes5 lang, string info) public onlyOwner(contractAddr){\n    info_store[contractAddr][selector][lang] = info;\n    emit InfoAttached(contractAddr, selector, lang, info);\n  }\n\n  /**\n   * @dev Allows anyone query contract information from this registry.\n   * @param contractAddr The address of the contract to query.\n   * @param selector The selector of function to query, use contract name's selector to query\n   information for the whole contract.\n   * @param lang ISO 639 language code of the information. If there is no info attached in specified language, \"en\" used as defaut.\n   * @return Information string in UTF8 encoding.\n   */\n  function getInfo(address contractAddr, bytes4 selector, bytes5 lang) constant public returns (string) {\n    if(bytes(info_store[contractAddr][selector][lang]).length != 0) return info_store[contractAddr][selector][lang];\n    else return info_store[contractAddr][selector][\"en\"];\n  }\n}",
  "sourcePath": "/Users/liuyi/dev/contract-info/contracts/ContractInfo.sol",
  "compiler": {
    "name": "solc",
    "version": "0.4.24+commit.e67f0147.Emscripten.clang"
  },
  "schemaVersion": "2.0.0",
  "updatedAt": "2018-06-14T03:09:44.120Z"
}